:020000040000FA
:10000000FF0E926E000E936E806E80B010EF00F0C7
:1000100080B222EF00F080B434EF00F046EF00F041
:10002000330E226E650E236E220602E11BEF00F0F6
:10003000818014EF00F0230602E146EF00F081908A
:100040001BEF00F0330E226E960E236E220602E1A5
:100050002DEF00F0818026EF00F0230602E146EF4D
:1000600000F081902DEF00F0330E226EC80E236E4B
:10007000220602E13FEF00F0818038EF00F0230616
:1000800002E146EF00F081901BEF00F005EF00F079
:0200900000006E
:00000001FF
